:100000000C9472000C9493000C9493000C94930045
:100010000C9493000C94A60A0C94BD0A0C949300C3
:100020000C9493000C9493000C9493000C94930004
:100030000C9493000C9493000C9493000C949300F4
:100040000C9493000C9493000C9493000C949300E4
:100050000C9493000C9493000C9493000C949300D4
:100060000C9493000C9493000C9493000C949300C4
:100070000C9493000C9493000C9493000C949300B4
:100080000C9493000C9493000C9493000C949300A4
:100090000C9493000C9493000C9493000C94930094
:1000A0000C9493000C9493000C9493000C94930084
:1000B0000C9493000C9493000C9493000C94930074
:1000C0000C9493000C9493000C9493000C94930064
:1000D0000C9493000C9493000C9421140C949300B2
:1000E0000C94930011241FBECFEFD1E2DEBFCDBF31
:1000F00000E00CBF13E0A0E0B2E0E4E6FAE300E0C9
:100100000BBF02C007900D92AA34B107D9F716E0D1
:10011000AAE4B3E001C01D92A639B107E1F70E943D
:100120009D140C94301D0C9400000F931F93DF93CB
:10013000CF93CDB7DEB7C057D0400FB6F894DEBF2F
:100140000FBECDBFFE01E359FF4F80E090E0A0E875
:10015000BFE380839183A283B3838E0107591F4F2E
:10016000FE01E359FF4F608171818281938126E610
:100170003EE443E655E40E948E17DC01CB01F80112
:1001800080839183A283B383FE01E759FF4F60818F
:1001900071818281938120E030E040E85FE30E943A
:1001A000E818882344F4FE01E959FF4F81E090E00C
:1001B0009183808364C0FE01E759FF4F60817181A4
:1001C0008281938120E03FEF4FE757E40E94881837
:1001D00018160CF043C0FE01E359FF4F6081718196
:1001E0008281938120E030E040E251E40E948E174A
:1001F000DC01CB018E0109591F4FBC01CD010E94CA
:10020000B815DC01CB01F801918380831FC0FE018A
:10021000EB59FF4F8BE691E091838083FE01EB5910
:10022000FF4F808191810197F1F7FE01EB59FF4F5C
:1002300091838083DE01A959BF4FFE01E959FF4F29
:1002400080819181019711969C938E93FE01E959CB
:10025000FF4F808191810097D1F627C08E01095907
:100260001F4FFE01E759FF4F6081718182819381A9
:100270000E94B815DC01CB01F80191838083DE0177
:10028000AD59BF4FFE01E959FF4F808191818D9398
:100290009C93FE01ED59FF4F808191810197F1F709
:1002A000FE01ED59FF4F91838083A8E2B0E0E8E2C0
:1002B000F0E080818E7F8C93A8E2B0E0E8E2F0E08D
:1002C00080818D7F8C93E8E2F0E080E38083A8E278
:1002D000B0E0E8E2F0E0808184608C93FE01E15AB6
:1002E000FF4F80E090E0A0EAB0E480839183A28396
:1002F000B3838E01055A1F4FFE01E15AFF4F608103
:1003000071818281938126E63EE443E655E40E94B2
:100310008E17DC01CB01F80180839183A283B38324
:10032000FE01E55AFF4F608171818281938120E057
:1003300030E040E85FE30E94E818882344F4FE01BF
:10034000E75AFF4F81E090E09183808364C0FE0113
:10035000E55AFF4F608171818281938120E03FEFF8
:100360004FE757E40E94881818160CF043C0FE01AE
:10037000E15AFF4F608171818281938120E030E0FA
:1003800040E251E40E948E17DC01CB018E01075A36
:100390001F4FBC01CD010E94B815DC01CB01F80153
:1003A000918380831FC0FE01E95AFF4F8BE691E0E5
:1003B00091838083FE01E95AFF4F808191810197EB
:1003C000F1F7FE01E95AFF4F91838083DE01A75ABE
:1003D000BF4FFE01E75AFF4F80819181019711962F
:1003E0009C938E93FE01E75AFF4F80819181009785
:1003F000D1F627C08E01075A1F4FFE01E55AFF4F65
:1004000060817181828193810E94B815DC01CB01EA
:10041000F80191838083DE01AB5ABF4FFE01E75A9A
:10042000FF4F808191818D939C93FE01EB5AFF4F8A
:10043000808191810197F1F7FE01EB5AFF4F918383
:100440008083A8E2B0E0E8E2F0E080818B7F8C93CB
:10045000FE01EF5AFF4F80E090E0A0E8BFE3808309
:100460009183A283B3838E01035B1F4FFE01EF5A7A
:10047000FF4F608171818281938126E63EE443E6ED
:1004800055E40E948E17DC01CB01F8018083918333
:10049000A283B383FE01E35BFF4F608171818281A0
:1004A000938120E030E040E85FE30E94E818882371
:1004B00044F4FE01E55BFF4F81E090E0918380838F
:1004C00064C0FE01E35BFF4F608171818281938193
:1004D00020E03FEF4FE757E40E94881818160CF011
:1004E00043C0FE01EF5AFF4F608171818281938189
:1004F00020E030E040E251E40E948E17DC01CB01A5
:100500008E01055B1F4FBC01CD010E94B815DC01B7
:10051000CB01F801918380831FC0FE01E75BFF4F91
:100520008BE691E091838083FE01E75BFF4F808142
:1005300091810197F1F7FE01E75BFF4F9183808383
:10054000DE01A55BBF4FFE01E55BFF4F808191811E
:10055000019711969C938E93FE01E55BFF4F80817E
:1005600091810097D1F627C08E01055B1F4FFE01D8
:10057000E35BFF4F60817181828193810E94B81596
:10058000DC01CB01F80191838083DE01A95BBF4FC1
:10059000FE01E55BFF4F808191818D939C93FE016D
:1005A000E95BFF4F808191810197F1F7FE01E95BE3
:1005B000FF4F91838083A8E2B0E0E8E2F0E0808121
:1005C0008E7F8C93A8E2B0E0E8E2F0E080818D7F3E
:1005D0008C93E8E2F0E080E38083A8E2B0E0E8E218
:1005E000F0E0808184608C93FE01ED5BFF4F80E042
:1005F00090E0A0EAB0E480839183A283B3838E016C
:10060000015C1F4FFE01ED5BFF4F608171818281B4
:10061000938126E63EE443E655E40E948E17DC0112
:10062000CB01F80180839183A283B383FE01FF96FF
:10063000608171818281938120E030E040E85FE356
:100640000E94E81888232CF481E090E09EAF8DAFE3
:1006500046C0FE01FF96608171818281938120E016
:100660003FEF4FE757E40E948818181664F5FE0123
:10067000ED5BFF4F608171818281938120E030E0EA
:1006800040E251E40E948E17DC01CB01BC01CD0198
:100690000E94B815DC01CB019EAF8DAF0FC08BE679
:1006A00091E09CAF8BAF8BAD9CAD0197F1F79CAF08
:1006B0008BAF8DAD9EAD01979EAF8DAF8DAD9EADD5
:1006C000009769F716C0FE01FF96608171818281F3
:1006D00093810E94B815DC01CB019EAF8DAF8DAD2B
:1006E0009EAD9AAF89AF89AD9AAD0197F1F79AAFF8
:1006F00089AFA8E2B0E0E8E2F0E080818B7F8C93E4
:1007000080E090E0A0E8BFE38DAB9EABAFABB8AFAD
:100710006DA97EA98FA998AD26E63EE443E655E48F
:100720000E948E17DC01CB0189AB9AABABABBCABA3
:1007300069A97AA98BA99CA920E030E040E85FE391
:100740000E94E81888232CF481E090E098AB8FA7F2
:100750003FC069A97AA98BA99CA920E03FEF4FE788
:1007600057E40E94881818164CF56DA97EA98FA928
:1007700098AD20E030E040E251E40E948E17DC01A9
:10078000CB01BC01CD010E94B815DC01CB0198ABB7
:100790008FA70FC08BE691E09EA78DA78DA59EA584
:1007A0000197F1F79EA78DA78FA598A9019798AB00
:1007B0008FA78FA598A9009769F714C069A97AA98E
:1007C0008BA99CA90E94B815DC01CB0198AB8FA71F
:1007D0008FA598A99CA78BA78BA59CA50197F1F73E
:1007E0009CA78BA7A8E2B0E0E8E2F0E080818E7FD2
:1007F0008C93A8E2B0E0E8E2F0E080818D7F8C93FA
:10080000E8E2F0E080E38083A8E2B0E0E8E2F0E034
:10081000808184608C9380E090E0A0EAB0E48FA3B4
:1008200098A7A9A7BAA76FA178A589A59AA526E632
:100830003EE443E655E40E948E17DC01CB018BA316
:100840009CA3ADA3BEA36BA17CA18DA19EA120E022
:1008500030E040E85FE30E94E81888232CF481E050
:1008600090E09AA389A33FC06BA17CA18DA19EA11A
:1008700020E03FEF4FE757E40E94881818164CF528
:100880006FA178A589A59AA520E030E040E251E467
:100890000E948E17DC01CB01BC01CD010E94B8156E
:1008A000DC01CB019AA389A30FC08BE691E098A34A
:1008B0008F8F8F8D98A10197F1F798A38F8F89A1C2
:1008C0009AA101979AA389A389A19AA1009769F790
:1008D00014C06BA17CA18DA19EA10E94B815DC0162
:1008E000CB019AA389A389A19AA19E8F8D8F8D8D0B
:1008F0009E8D0197F1F79E8F8D8FA8E2B0E0E8E220
:10090000F0E080818B7F8C9380E090E0A0E8BFE3F3
:10091000898F9A8FAB8FBC8F698D7A8D8B8D9C8DD3
:1009200026E63EE443E655E40E948E17DC01CB0147
:100930008D8B9E8BAF8BB88F6D897E898F89988DBB
:1009400020E030E040E85FE30E94E81888232CF4C0
:1009500081E090E09C8B8B8B3FC06D897E898F8975
:10096000988D20E03FEF4FE757E40E948818181653
:100970004CF5698D7A8D8B8D9C8D20E030E040E2C6
:1009800051E40E948E17DC01CB01BC01CD010E9415
:10099000B815DC01CB019C8B8B8B0FC08BE691E0F3
:1009A0009A8B898B89899A890197F1F79A8B898B20
:1009B0008B899C8901979C8B8B8B8B899C89009759
:1009C00069F714C06D897E898F89988D0E94B8154A
:1009D000DC01CB019C8B8B8B8B899C89988B8F87BF
:1009E0008F8598890197F1F7988B8F87A8E2B0E0FF
:1009F000E8E2F0E080818E7F8C93A8E2B0E0E8E24C
:100A0000F0E080818D7F8C93E8E2F0E080E28083EB
:100A1000A8E2B0E0E8E2F0E0808184608C9380E0BE
:100A200090E0A0EAB0E48B879C87AD87BE876B859A
:100A30007C858D859E8526E63EE443E655E40E944E
:100A40008E17DC01CB018F839887A987BA876F81C6
:100A5000788589859A8520E030E040E85FE30E9450
:100A6000E81888232CF481E090E09E838D833FC0BA
:100A70006F81788589859A8520E03FEF4FE757E4BD
:100A80000E94881818164CF56B857C858D859E858F
:100A900020E030E040E251E40E948E17DC01CB01FF
:100AA000BC01CD010E94B815DC01CB019E838D8372
:100AB0000FC08BE691E09C838B838B819C81019797
:100AC000F1F79C838B838D819E8101979E838D831B
:100AD0008D819E81009769F714C06F817885898523
:100AE0009A850E94B815DC01CB019E838D838D8190
:100AF0009E819A83898389819A810197F1F79A83EC
:100B00008983A8E2B0E0E8E2F0E080818B7F8C93FB
:100B1000C059DF4F0FB6F894DEBF0FBECDBFCF91E7
:100B2000DF911F910F910895DF93CF93CDB7DEB77B
:100B30002E970FB6F894DEBF0FBECDBF80E090E0D9
:100B4000A0E8BFE38B879C87AD87BE876B857C85DC
:100B50008D859E8526E63EE443E655E40E948E1789
:100B6000DC01CB018F839887A987BA876F8178854D
:100B700089859A8520E030E040E85FE30E94E8182C
:100B800088232CF481E090E09E838D833FC06F81A9
:100B9000788589859A8520E03FEF4FE757E40E94EA
:100BA000881818164CF56B857C858D859E8520E010
:100BB00030E040E251E40E948E17DC01CB01BC0121
:100BC000CD010E94B815DC01CB019E838D830FC03F
:100BD0008BE691E09C838B838B819C810197F1F75D
:100BE0009C838B838D819E8101979E838D838D81D4
:100BF0009E81009769F714C06F81788589859A85F1
:100C00000E94B815DC01CB019E838D838D819E816E
:100C10009A83898389819A810197F1F79A838983DD
:100C200088E20E94280681E00E94280686E00E9451
:100C300028068EE00E94280680E80E9428062E964C
:100C40000FB6F894DEBF0FBECDBFCF91DF910895F0
:100C5000DF93CF93CDB7DEB76E970FB6F894DEBFB4
:100C60000FBECDBF8E8F8E8D8D8F8D8D807F8D8FA2
:100C7000A8E2B0E0E8E2F0E080818F708C93A8E217
:100C8000B0E0E8E2F0E090818D8D892B8C93A8E2B2
:100C9000B0E0E8E2F0E080818E7F8C93A8E2B0E0E3
:100CA000E8E2F0E080818D7F8C93A8E2B0E0E8E29A
:100CB000F0E0808184608C9380E090E0A0EAB0E472
:100CC000898F9A8FAB8FBC8F698D7A8D8B8D9C8D20
:100CD00026E63EE443E655E40E948E17DC01CB0194
:100CE0008D8B9E8BAF8BB88F6D897E898F89988D08
:100CF00020E030E040E85FE30E94E81888232CF40D
:100D000081E090E09C8B8B8B3FC06D897E898F89C1
:100D1000988D20E03FEF4FE757E40E94881818169F
:100D20004CF5698D7A8D8B8D9C8D20E030E040E212
:100D300051E40E948E17DC01CB01BC01CD010E9461
:100D4000B815DC01CB019C8B8B8B0FC08BE691E03F
:100D50009A8B898B89899A890197F1F79A8B898B6C
:100D60008B899C8901979C8B8B8B8B899C890097A5
:100D700069F714C06D897E898F89988D0E94B81596
:100D8000DC01CB019C8B8B8B8B899C89988B8F870B
:100D90008F8598890197F1F7988B8F87A8E2B0E04B
:100DA000E8E2F0E080818B7F8C938E8D8F708E8F48
:100DB0008E8D8295807F8E8FA8E2B0E0E8E2F0E031
:100DC00080818F708C93A8E2B0E0E8E2F0E090813F
:100DD0008E8D892B8C93A8E2B0E0E8E2F0E0808170
:100DE0008E7F8C93A8E2B0E0E8E2F0E080818D7F16
:100DF0008C93A8E2B0E0E8E2F0E0808184608C931C
:100E000080E090E0A0EAB0E48B879C87AD87BE8746
:100E10006B857C858D859E8526E63EE443E655E41C
:100E20000E948E17DC01CB018F839887A987BA8730
:100E30006F81788589859A8520E030E040E85FE31E
:100E40000E94E81888232CF481E090E09E838D8333
:100E50003FC06F81788589859A8520E03FEF4FE715
:100E600057E40E94881818164CF56B857C858D8593
:100E70009E8520E030E040E251E40E948E17DC01C4
:100E8000CB01BC01CD010E94B815DC01CB019E83D2
:100E90008D830FC08BE691E09C838B838B819C813B
:100EA0000197F1F79C838B838D819E8101979E83AF
:100EB0008D838D819E81009769F714C06F8178853D
:100EC00089859A850E94B815DC01CB019E838D83AC
:100ED0008D819E819A83898389819A810197F1F717
:100EE0009A838983A8E2B0E0E8E2F0E080818B7F1A
:100EF0008C936E960FB6F894DEBF0FBECDBFCF9128
:100F0000DF910895DF93CF93CDB7DEB76E970FB61D
:100F1000F894DEBF0FBECDBF8E8F8E8D8D8F8D8DE1
:100F2000807F8D8FA8E2B0E0E8E2F0E080818F70F2
:100F30008C93A8E2B0E0E8E2F0E090818D8D892BFF
:100F40008C93A8E2B0E0E8E2F0E0808181608C93CD
:100F5000A8E2B0E0E8E2F0E080818D7F8C93A8E227
:100F6000B0E0E8E2F0E0808184608C9380E090E083
:100F7000A0EAB0E4898F9A8FAB8FBC8F698D7A8D90
:100F80008B8D9C8D26E63EE443E655E40E948E1749
:100F9000DC01CB018D8B9E8BAF8BB88F6D897E89E9
:100FA0008F89988D20E030E040E85FE30E94E818E8
:100FB00088232CF481E090E09C8B8B8B3FC06D8963
:100FC0007E898F89988D20E03FEF4FE757E40E949C
:100FD000881818164CF5698D7A8D8B8D9C8D20E0C4
:100FE00030E040E251E40E948E17DC01CB01BC01ED
:100FF000CD010E94B815DC01CB019C8B8B8B0FC0FF
:101000008BE691E09A8B898B89899A890197F1F710
:101010009A8B898B8B899C8901979C8B8B8B8B8975
:101020009C89009769F714C06D897E898F89988D96
:101030000E94B815DC01CB019C8B8B8B8B899C8922
:10104000988B8F878F8598890197F1F7988B8F8779
:10105000A8E2B0E0E8E2F0E080818B7F8C938E8D97
:101060008F708E8F8E8D8295807F8E8FA8E2B0E0FC
:10107000E8E2F0E080818F708C93A8E2B0E0E8E2D3
:10108000F0E090818E8D892B8C93A8E2B0E0E8E2AD
:10109000F0E0808181608C93A8E2B0E0E8E2F0E0CB
:1010A00080818D7F8C93A8E2B0E0E8E2F0E080815F
:1010B00084608C9380E090E0A0EAB0E48B879C870A
:1010C000AD87BE876B857C858D859E8526E63EE453
:1010D00043E655E40E948E17DC01CB018F8398878D
:1010E000A987BA876F81788589859A8520E030E065
:1010F00040E85FE30E94E81888232CF481E090E048
:101100009E838D833FC06F81788589859A8520E095
:101110003FEF4FE757E40E94881818164CF56B858F
:101120007C858D859E8520E030E040E251E40E9480
:101130008E17DC01CB01BC01CD010E94B815DC018A
:10114000CB019E838D830FC08BE691E09C838B83C4
:101150008B819C810197F1F79C838B838D819E818C
:1011600001979E838D838D819E81009769F714C0BE
:101170006F81788589859A850E94B815DC01CB013D
:101180009E838D838D819E819A83898389819A81B3
:101190000197F1F79A838983A8E2B0E0E8E2F0E0F2
:1011A00080818B7F8C936E960FB6F894DEBF0FBE56
:1011B000CDBFCF91DF910895DF93CF93CDB7DEB749
:1011C00080E80E942806CF91DF910895DF93CF93A6
:1011D0000F920F92CDB7DEB79A8389830AC0E98157
:1011E000FA8180810E94820789819A8101969A837F
:1011F0008983E981FA818081882389F70F900F9094
:10120000CF91DF910895DF93CF9300D00F92CDB7A8
:10121000DEB789836A838981282F30E03C832B8362
:101220008B819C8182309105D9F02B813C812330C8
:10123000310534F48B819C818130910561F01EC0B1
:101240002B813C812330310581F08B819C8184305E
:10125000910581F013C08A8181580E9428060EC032
:101260008A8181540E94280609C08A818D560E9475
:10127000280604C08A818D520E9428060F900F9084
:101280000F900F90CF91DF910895DF93CF93CDB75B
:10129000DEB727970FB6F894DEBF0FBECDBF8A83A7
:1012A0006B835D834C833F832E8319828A818823DD
:1012B00019F08B81882319F40E94DC0804C08A810C
:1012C0006B810E9403098E819F818530910519F001
:1012D00089818130A9F48C819D8120E137E2B901B7
:1012E0000E94D21CCB01C0969093B5058093B405A3
:1012F0008091B4059091B5050E94820781E08983B1
:101300008E819F818430910519F08981813011F59A
:101310008C819D8128EE33E0B9010E94D21CCB0163
:1013200090936306809362068091620690916306B3
:101330002AE030E0B9010E94D21CC09690938D063D
:1013400080938C0680918C0690918D060E94820776
:1013500081E089838E819F818330910519F0898195
:10136000813011F58C819D8124E630E0B9010E9425
:10137000D21CCB0190936306809362068091620633
:10138000909163062AE030E0B9010E94D21CC09619
:1013900090938506809384068091840690918506BB
:1013A0000E94820781E089838E819F81823091052E
:1013B00019F08981813011F58C819D812AE030E01E
:1013C000B9010E94D21CCB01909363068093620600
:1013D00080916206909163062AE030E0B9010E9494
:1013E000D21CC09690937A068093790680917906F4
:1013F00090917A060E94820781E089838E819F8185
:101400008130910519F08981813091F48C819D8121
:101410002AE030E0B9010E94D21CC09690938B065E
:1014200080938A0680918A0690918B060E9482079B
:101430008E819F81863091051CF085E40E94820791
:1014400027960FB6F894DEBF0FBECDBFCF91DF91C8
:101450000895DF93CF93CDB7DEB783E00E947F0B73
:101460008093590382E00E947F0B80935A0381E0AE
:101470000E947F0B80935B0384E00E947F0B80932C
:101480005D0388E00E947F0B80935E0386E00E94EC
:101490007F0B80935C03CF91DF910895DF93CF930F
:1014A0000F92CDB7DEB71982E6E2F0E08081898342
:1014B000898188608983E8E2F0E0898180830F90E8
:1014C000CF91DF910895DF93CF930F92CDB7DEB721
:1014D0001982E6E2F0E0808189838981877F8983B0
:1014E000E8E2F0E0898180830F90CF91DF91089549
:1014F000DF93CF93CDB7DEB7F894AAE6B0E0EAE683
:10150000F0E0808182608C93ADE3B0E0EDE3F0E049
:10151000808180618C937894CF91DF910895DF93DF
:10152000CF93CDB7DEB7F894AAE6B0E0EAE6F0E0F4
:10153000808188608C93ADE3B0E0EDE3F0E08081E2
:1015400080628C937894CF91DF9108951F920F92CF
:101550000FB60F9211248F93DF93CF93CDB7DEB7E1
:10156000809163038F5F80936303CF91DF918F91AD
:101570000F900FBE0F901F9018951F920F920FB6ED
:101580000F9211248F93DF93CF93CDB7DEB7809165
:1015900064038F5F80936403CF91DF918F910F90ED
:1015A0000FBE0F901F901895DF93CF93CDB7DEB786
:1015B0001092630310926403CF91DF910895DF933B
:1015C000CF93CDB7DEB7A7E2B0E0E7E2F0E08081ED
:1015D000876F8C93A8E2B0E0E8E2F0E08081807849
:1015E0008C93CF91DF910895DF93CF93CDB7DEB782
:1015F000E0E3F0E01082E1E3F0E01082E7E0F1E008
:101600001082E8E0F1E01082CF91DF910895DF933E
:10161000CF93CDB7DEB7A1E2B0E0E1E2F0E08081A8
:101620008F608C93A2E2B0E0E2E2F0E08081807F04
:101630008C93AAE0B1E0EAE0F1E0808188618C93CC
:10164000ABE0B1E0EBE0F1E0808188618C93CF9179
:10165000DF910895DF93CF93CDB7DEB70E94DF0A05
:101660000E94F40A0E94070BCF91DF910895DF9347
:10167000CF93CDB7DEB7E1E2F1E01082E5E2F1E031
:101680008FEF8083E4E2F1E081E08083E9E2F1E042
:101690001082E8E2F1E08FEF8083EBE2F1E010826C
:1016A000EAE2F1E08FEF8083EDE2F1E01082ECE21C
:1016B000F1E08FEF8083E0E2F1E089EA8083E1E20C
:1016C000F1E08BE08083CF91DF910895DF93CF939A
:1016D000CDB7DEB7EAE7F0E01082EBE7F0E010828A
:1016E000ECE7F0E080E28083E0E5F0E080E88083F2
:1016F000EAE7F0E086E88083CF91DF910895DF93F9
:10170000CF930F920F92CDB7DEB78A838A8188304C
:1017100020F0EBE7F0E088E080838A8187708A839D
:10172000ECE7F0E08A8180628083AAE7B0E0EAE734
:10173000F0E0808180648C93EAE7F0E08081882F7C
:1017400090E0807190700097B9F3E9E7F0E0808154
:101750008983AAE7B0E0EAE7F0E0808180618C93BA
:10176000EBE7F0E0108289810F900F90CF91DF912D
:101770000895DF93CF9300D0CDB7DEB789836A8316
:101780004B838B810E947F0B80936406809164065B
:10179000282F30E089816A81A90123E030E00E948E
:1017A00045090F900F900F90CF91DF910895DF932F
:1017B000CF93CDB7DEB781E061E043E00E94B90B83
:1017C00081E065E042E00E94B90B81E069E041E020
:1017D0000E94B90BCF91DF910895DF93CF930F92C1
:1017E0000F92CDB7DEB789836A83E8E2F1E08981A1
:1017F0008083EAE2F1E08A8180830F900F90CF919D
:10180000DF9108951F93DF93CF93CDB7DEB72C9769
:101810000FB6F894DEBF0FBECDBF9A8789877C874D
:101820006B8789859A85AA2797FDA095BA2FBC0159
:10183000CD010E941819DC01CB01BC01CD0123E3CD
:1018400033E343EB5FE30E948E17DC01CB018D8312
:101850009E83AF83B8878B859C85AA2797FDA0952B
:10186000BA2FBC01CD010E941819DC01CB01BC01CB
:10187000CD0123E333E343EB5FE30E948E17DC01EA
:10188000CB0189839A83AB83BC836D817E818F81F9
:1018900098850E947619DC01CB01182F69817A8125
:1018A0008B819C810E947619DC01CB01982F812FBE
:1018B000692F0E94ED0B2C960FB6F894DEBF0FBE79
:1018C000CDBFCF91DF911F910895DF93CF930F92FA
:1018D0000F92CDB7DEB78A8319828A818F708A838F
:1018E000E2E2F0E0808189838981807F8983998128
:1018F0008A81892B8983E2E2F0E0898180830F90DD
:101900000F90CF91DF910895DF93CF93CDB7DEB7DE
:1019100086E00E94650CCF91DF910895DF93CF930D
:10192000CDB7DEB780E00E94650CCF91DF910895BE
:10193000DF93CF93CDB7DEB7F8940E942A0B0E94B5
:10194000660B0E94370B7894CF91DF910895DF9357
:10195000CF93CDB7DEB72E970FB6F894DEBF0FBE8C
:10196000CDBF0E94630A8AE00E94650C86E490E085
:1019700066E470E00E94020C80E090E0AAE7B4E424
:101980008B879C87AD87BE876B857C858D859E8583
:1019900026E63EE443E655E40E948E17DC01CB01C7
:1019A0008F839887A987BA876F81788589859A857B
:1019B00020E030E040E85FE30E94E81888232CF440
:1019C00081E090E09E838D833FC06F81788589851B
:1019D0009A8520E03FEF4FE757E40E9488181816D9
:1019E0004CF56B857C858D859E8520E030E040E25E
:1019F00051E40E948E17DC01CB01BC01CD010E9495
:101A0000B815DC01CB019E838D830FC08BE691E07E
:101A10009C838B838B819C810197F1F79C838B83C3
:101A20008D819E8101979E838D838D819E810097FC
:101A300069F714C06F81788589859A850E94B815E9
:101A4000DC01CB019E838D838D819E819A83898366
:101A500089819A810197F1F79A8389830E94D70B34
:101A60000E94290A80915A038F31C0F780E090E0EC
:101A700060E070E00E94020C2E960FB6F894DEBF74
:101A80000FBECDBFCF91DF910895DF93CF93CDB738
:101A9000DEB72E970FB6F894DEBF0FBECDBF0E9403
:101AA000630A85E00E94650C86E490E066E470E0DD
:101AB0000E94020C80E090E0AAE7B4E48B879C8748
:101AC000AD87BE876B857C858D859E8526E63EE449
:101AD00043E655E40E948E17DC01CB018F83988783
:101AE000A987BA876F81788589859A8520E030E05B
:101AF00040E85FE30E94E81888232CF481E090E03E
:101B00009E838D833FC06F81788589859A8520E08B
:101B10003FEF4FE757E40E94881818164CF56B8585
:101B20007C858D859E8520E030E040E251E40E9476
:101B30008E17DC01CB01BC01CD010E94B815DC0180
:101B4000CB019E838D830FC08BE691E09C838B83BA
:101B50008B819C810197F1F79C838B838D819E8182
:101B600001979E838D838D819E81009769F714C0B4
:101B70006F81788589859A850E94B815DC01CB0133
:101B80009E838D838D819E819A83898389819A81A9
:101B90000197F1F79A8389830E94D70B0E94290A43
:101BA00080915A038F31C0F780E090E060E070E0F0
:101BB0000E94020C2E960FB6F894DEBF0FBECDBF6A
:101BC000CF91DF910895DF93CF93CDB7DEB72797FD
:101BD0000FB6F894DEBF0FBECDBF83E08E831D82AB
:101BE00010929104A5E0B1E0E5E0F1E080818F5F23
:101BF0008C9380915A03883068F48091590388301F
:101C000048F480915B03883028F4E5E0F1E08AEA4B
:101C1000808315C10E94290A109258030E94D70B95
:101C200080919104882379F480915C03803F58F47B
:101C30000E944E0A89E00E94650C0E94290A81E0F8
:101C400080939104FCC0809159038032E0F0809130
:101C50005A038F31C0F480915B038032A0F08091F1
:101C60009104882319F40E94840C03C089E00E9427
:101C7000650C8CE390E06CE370E00E94020C1D8226
:101C80000E94630AAFCF809159038F3110F5809184
:101C90005A038F31F0F480915B038032D0F0809151
:101CA0009104882349F40E94840C82E390E06BE461
:101CB00070E00E94020C09C089E00E94650C8BE470
:101CC00090E062E370E00E94020C1D820E94630AB1
:101CD00089CF809159038F3138F580915A03803232
:101CE00018F180915B038032F8F080919104882391
:101CF00059F4E2E2F0E085E0808382E390E060E581
:101D000070E00E94020C0AC0E2E2F0E086E080830C
:101D100082E390E060E570E00E94020C83E08E8335
:101D20001D820E94630A5ECF80915903803218F1B0
:101D300080915A038F31F8F480915B038F31D8F48E
:101D400080919104882349F40E94840C8BE490E0F4
:101D500062E370E00E94020C0AC0E2E2F0E089E077
:101D6000808382E390E06BE470E00E94020C1D82AD
:101D70000E94630A37CF80915903803238F18091F5
:101D80005A03803218F180915B038F31F8F480910F
:101D90009104882359F4E2E2F0E08AE0808380E550
:101DA00090E062E370E00E94020C0AC0E2E2F0E020
:101DB00086E0808380E590E062E370E00E94020CA0
:101DC00081E08E831D820E94630A0CCF0E94630A09
:101DD0008D818530D8F08E81833021F485E00E949A
:101DE000650C06C08E81813019F48AE00E94650C72
:101DF0008CE390E06CE370E00E94020C0E94D70B31
:101E00000E94290A80915A038F31C0F78D81853055
:101E100028F48D81282F2F5F2F8302C045E04F8348
:101E20005F815D830E94840C80E090E060E070E060
:101E30000E94020CE5E0F1E089E98083D3CE809135
:101E40009104882309F4CEC020914C0330914D03B6
:101E5000C901880F991F820F931F880F991F9C013A
:101E600080914A0390914B03820F931F209152035C
:101E700030915303880F991F880F991F820F931F6A
:101E8000880F991FFC01EE56FB4F118210820E94B1
:101E9000671220914C0330914D03C901880F991F9F
:101EA000820F931F880F991F9C0180914A03909184
:101EB0004B03820F931F9C838B8380916B069091C1
:101EC0006C06880F991FFC01EB59FC4F2081318172
:101ED0008B819C81B9010E94D41081E090E09093A5
:101EE000B3058093B2058091B2059091B3050E942D
:101EF0008C1220912F04309130048B819C81A90198
:101F0000481B590BCA019A83898389819A815FEFA3
:101F10008F3F950729F483E090E09C838B8317C063
:101F200089819A812FEF8A3F920729F482E090E01D
:101F30009C838B830CC089819A818630910519F42A
:101F40001C821B8204C081E090E09C838B832091E3
:101F50005203309153038B819C81821B930B8170C0
:101F60009070009721F40E94A70C0E94A70C8B810F
:101F70009C819C012D5F3F4F8091520390915303B0
:101F80002817390761F080915203909153039C0107
:101F90002F5F3F4F8B819C812817390719F40E94CE
:101FA000A70C1AC08B819C819C012F5F3F4F8091B1
:101FB0005203909153032817390761F0809152031F
:101FC000909153039C012D5F3F4F8B819C8128177B
:101FD000390711F40E94450D8B819C819093530326
:101FE0008093520327960FB6F894DEBF0FBECDBF85
:101FF000CF91DF910895DF93CF93CDB7DEB72E97C2
:102000000FB6F894DEBF0FBECDBF9A8789877C8755
:102010006B8789859A8526E030E0B9010E94E61C2D
:1020200098878F8389859A8526E030E0B9010E94E0
:10203000E61CCB019E838D838B859C8526E030E05A
:10204000B9010E94E61C9C838B838B859C8526E0CE
:1020500030E0B9010E94E61CCB019A8389832F816D
:1020600038858B819C812817390761F42D813E8149
:1020700089819A812817390729F48FEF9FEF9E876E
:102080008D8787C02F8138858B819C8128173907E0
:1020900051F42D813E8189819A81281739071CF4DA
:1020A0001E861D8676C02F8138858B819C812817DE
:1020B000390764F42D813E8189819A812817390777
:1020C0002CF481E090E09E878D8763C02F81388556
:1020D0008B819C812817390764F42D813E81898189
:1020E0009A812817390729F482E090E09E878D872E
:1020F00050C02F8138858B819C812817390764F463
:102100002D813E8189819A81821793072CF483E087
:1021100090E09E878D873DC02F8138858B819C8183
:102120002817390761F42D813E8189819A818217B0
:1021300093072CF484E090E09E878D872AC02F813E
:1021400038858B819C818217930764F42D813E81B1
:1021500089819A81821793072CF485E090E09E870D
:102160008D8717C02F8138858B819C8182179307BB
:1021700064F42D813E8189819A812817390729F4D9
:1021800086E090E09E878D8704C087E090E09E8780
:102190008D878D859E852E960FB6F894DEBF0FBE77
:1021A000CDBFCF91DF910895DF93CF93CDB7DEB749
:1021B0002A970FB6F894DEBF0FBECDBF9E838D83E6
:1021C00078876F832F8138858D819E812817390705
:1021D000C9F42091860630918706C901880F991F9E
:1021E000FC01E35DFB4F8D819E8191838083C9015A
:1021F0000196909387068093860681E090E09A8707
:1022000089875AC18D819E81880F991FFC01E65EE6
:10221000F94F80819181009719F01A8619864CC177
:102220008D819E81880F991FFC01E65EF94F81E048
:1022300090E0918380832091860630918706C901C2
:10224000880F991FFC01E35DFB4F8D819E81918377
:102250008083C901019690938706809386068D81BD
:102260009E812F813885B9010E94FB0F9A83898353
:1022700089819A81880F991FFC01E85FFD4F808159
:1022800091819A838983ED81FE8189819A8128EEEB
:1022900033E0B9010E94E61CCB019C01CF01880FFD
:1022A000991F880F991F820F931F880F991FFC0198
:1022B000EE56FB4F80819181009721F189819A81AF
:1022C00028EE33E0B9010E94E61CCB01880F991F6C
:1022D000FC01E85EFD4F208131818D819E81820F5E
:1022E000931F2F813885B9010E94D4109C838B8362
:1022F0008B819C818130910529F481E090E09A875F
:102300008987DAC0ED81FE8189819A8124E630E0F7
:10231000B9010E94E61CCB012AE030E0B9010E941D
:10232000E61C9C01CF01880F991F880F991F820F0F
:10233000931F880F991FFC01EE56FB4F80819181FE
:10234000009749F189819A8124E630E0B9010E9421
:10235000E61CCB012AE030E0B9010E94E61C880FA0
:10236000991FFC01E85EFD4F208131818D819E81A6
:10237000820F931F2F813885B9010E94D4109C834E
:102380008B838B819C818130910529F481E090E0E1
:102390009A87898791C0ED81FE8189819A812AE09F
:1023A00030E0B9010E94E61CCB012AE030E0B9011F
:1023B0000E94E61C9C01CF01880F991F880F991F6E
:1023C000820F931F880F991FFC01EE56FB4F8081EF
:1023D0009181009749F189819A812AE030E0B90121
:1023E0000E94E61CCB012AE030E0B9010E94E61C05
:1023F000880F991FFC01E85EFD4F208131818D819E
:102400009E81820F931F2F813885B9010E94D410BD
:102410009C838B838B819C818130910529F481E0A1
:1024200090E09A87898748C0ED81FE8189819A81F1
:102430002AE030E0B9010E94E61C9C01CF01880F20
:10244000991F880F991F820F931F880F991FFC01F6
:10245000EE56FB4F80819181009719F189819A8115
:102460002AE030E0B9010E94E61C880F991FFC01A8
:10247000E85EFD4F208131818D819E81820F931F07
:102480002F813885B9010E94D4109C838B838B8166
:102490009C818130910529F481E090E09A878987B9
:1024A0000BC08091860690918706019790938706CE
:1024B000809386061A86198689859A852A960FB68C
:1024C000F894DEBF0FBECDBFCF91DF910895DF93AB
:1024D000CF930F920F92CDB7DEB71A8219820EC03A
:1024E00089819A81880F991FFC01E65EF94F11825C
:1024F000108289819A8101969A83898389819A8140
:10250000843291056CF310928706109286060F9024
:102510000F90CF91DF910895DF93CF930F920F9299
:10252000CDB7DEB79A83898389819A81880F991FF5
:10253000FC01E35DFB4F8081918126E030E0B90131
:102540000E94E61C90934F0380934E0389819A81E9
:10255000880F991FFC01E35DFB4F8081918126E08C
:1025600030E0B9010E94E61CCB01909351038093A7
:1025700050030F900F90CF91DF910895DF93CF9389
:1025800000D00F92CDB7DEB71C821B8225C01A8205
:10259000198218C08B819C8129813A81880F991FEB
:1025A000880F991F820F931F880F991FFC01EE5609
:1025B000FB4F81E090E09183808389819A8101962D
:1025C0009A83898389819A81843091051CF38B8158
:1025D0009C8101969C838B838B819C8184329105A5
:1025E000B4F20F900F900F900F90CF91DF9108955C
:1025F000DF93CF93CDB7DEB762970FB6F894DEBF07
:102600000FBECDBF80918E0690918F0684309105CC
:10261000A1F4209177063091780682E292E0B90128
:1026200044E050E00E94C41C009739F481E090E03F
:102630009093600380935F0361C080918E069091B8
:102640008F068830910509F059C0209177063091A6
:10265000780687E292E0B90144E050E00E94C41C91
:10266000009709F04BC08091770690917806FC01A5
:1026700035968081882F90E0C0979A8B898B8091C6
:10268000770690917806FC0137968081882F90E03C
:10269000C097988B8F8720917E0630917F0680911E
:1026A0006B0690916C062817390741F410927F064B
:1026B00010927E0610926C0610926B0640917E0678
:1026C00050917F062F853889C901880F991F820F85
:1026D000931F880F991F9C0189899A89280F391F98
:1026E000CA01880F991FFC01EB59FC4F31832083ED
:1026F000CA01019690937F0680937E061092620332
:102700001092610382E061E00E9403098CE292E092
:102710000E94E60880E090E0AAEFB4E48B879C87F3
:10272000AD87BE876B857C858D859E8526E63EE4DC
:1027300043E655E40E948E17DC01CB018F83988716
:10274000A987BA876F81788589859A8520E030E0EE
:1027500040E85FE30E94E81888232CF481E090E0D1
:102760009E838D833FC06F81788589859A8520E01F
:102770003FEF4FE757E40E94881818164CF56B8519
:102780007C858D859E8520E030E040E251E40E940A
:102790008E17DC01CB01BC01CD010E94B815DC0114
:1027A000CB019E838D830FC08BE691E09C838B834E
:1027B0008B819C810197F1F79C838B838D819E8116
:1027C00001979E838D838D819E81009769F714C048
:1027D0006F81788589859A850E94B815DC01CB01C7
:1027E0009E838D838D819E819A83898389819A813D
:1027F0000197F1F79A83898362960FB6F894DEBF4A
:102800000FBECDBFCF91DF910895DF93CF93CDB7AA
:10281000DEB7E1E3F1E01082E0E3F1E01082E2E311
:10282000F1E086E08083E4E3F1E08FE58083E5E397
:10283000F1E01082E1E3F1E088E98083CF91DF915C
:1028400008951F920F920FB60F9200905B000F92A7
:1028500011248F93EF93FF93DF93CF93CDB7DEB720
:10286000E6E3F1E0808180937D06CF91DF91FF91D7
:10287000EF918F910F9000925B000F900FBE0F9021
:102880001F901895DF93CF93CDB7DEB70E94051444
:1028900084E690E00E94BF1B9093780680937706B1
:1028A00084E690E00E94BF1B90938906809388067F
:1028B0000E94980C0E9495000E9494050E94BE12EE
:1028C00087E090E0909366038093650382E090E058
:1028D000909368038093670384E090E090936A0389
:1028E000809369038FEF9FEF90936C0680936B0644
:1028F0008FEF9FEF9093B3058093B20583E090E054
:1029000090937F0680937E0610928706109286062B
:102910001092910410924B0310924A0310924F03AD
:1029200010924E0310924D0310924C0310925103DB
:1029300010925003CF91DF910895DF93CF93CDB7DD
:10294000DEB7A8970FB6F894DEBF0FBECDBF0E94CA
:10295000421481E380937D0680916103909162032C
:10296000009731F00E94F81283E392E00E94E6089B
:1029700081E065E00E94030980917D060E94820744
:1029800080E090E0AAE7B4E4898F9A8FAB8FBC8F88
:10299000698D7A8D8B8D9C8D26E63EE443E655E469
:1029A0000E948E17DC01CB018D8B9E8BAF8BB88F75
:1029B0006D897E898F89988D20E030E040E85FE363
:1029C0000E94E81888232CF481E090E09C8B8B8B8C
:1029D0003FC06D897E898F89988D20E03FEF4FE75A
:1029E00057E40E94881818164CF5698D7A8D8B8DE6
:1029F0009C8D20E030E040E251E40E948E17DC0123
:102A0000CB01BC01CD010E94B815DC01CB019C8B30
:102A10008B8B0FC08BE691E09A8B898B89899A8981
:102A20000197F1F79A8B898B8B899C8901979C8BF5
:102A30008B8B8B899C89009769F714C06D897E897F
:102A40008F89988D0E94B815DC01CB019C8B8B8BF4
:102A50008B899C89988B8F878F8598890197F1F74F
:102A6000988B8F8781E065E00E94030980E30E94D4
:102A7000820780E090E0AAE7B4E48B879C87AD876B
:102A8000BE876B857C858D859E8526E63EE443E684
:102A900055E40E948E17DC01CB018F839887A987AC
:102AA000BA876F81788589859A8520E030E040E893
:102AB0005FE30E94E81888232CF481E090E09E8375
:102AC0008D833FC06F81788589859A8520E03FEFAF
:102AD0004FE757E40E94881818164CF56B857C85E3
:102AE0008D859E8520E030E040E251E40E948E1703
:102AF000DC01CB01BC01CD010E94B815DC01CB018A
:102B00009E838D830FC08BE691E09C838B838B81AA
:102B10009C810197F1F79C838B838D819E81019726
:102B20009E838D838D819E81009769F714C06F818C
:102B3000788589859A850E94B815DC01CB019E8332
:102B40008D838D819E819A83898389819A81019762
:102B5000F1F79A83898380917D06863409F0FCCE53
:102B600081E06AE00E94030989E30E948207F4CEB3
:102B7000EF92FF920F931F937B018C0120E030E0D6
:102B800040E05FE40E94B81888238CF0C801B701C8
:102B900020E030E040E05FE40E9430170E947619A8
:102BA0009B01AC01205030404040504806C0C80155
:102BB000B7010E9476199B01AC01B901CA011F91AE
:102BC0000F91FF90EF900895A0E0B0E0EAEEF5E1FC
:102BD0000C94F91CDC012B01FA019C91923008F451
:102BE00039C1EB018881823008F433C1943069F433
:102BF000843009F02FC111969C9111978981981703
:102C000009F428C1ABE3B2E025C1843009F421C145
:102C10008230A9F4923009F01DC19A01AD0188E01B
:102C2000EA010990AE01E90109929E018150C1F7C4
:102C3000E201898111969C918923818308C1923098
:102C400009F407C112962D903C901397EB018A81ED
:102C50009B811496AD90BD90CD90DC901797EC8041
:102C6000FD800E811F819101281B390BB90137FFAF
:102C700004C066277727621B730B603271050CF066
:102C800061C0121613066CF537014801062E04C008
:102C900096948794779467940A94D2F721E030E071
:102CA00040E050E004C0220F331F441F551F6A95B7
:102CB000D2F721503040404050402E213F21402348
:102CC0005123211531054105510521F021E030E066
:102CD00040E050E079018A01E628F72808291929FF
:102CE0003CC0232BD1F1260E371E35014601062E9E
:102CF00004C096948794779467940A94D2F721E05D
:102D000030E040E050E004C0220F331F441F551F45
:102D10006A95D2F721503040404050402A213B2153
:102D20004C215D21211531054105510521F021E09E
:102D300030E040E050E059016A01A628B728C828D1
:102D4000D9280BC0821593052CF01C01AA24BB24A2
:102D5000650103C0EE24FF24870111969C91D201E6
:102D600011968C91981709F445C0992339F0A80160
:102D700097012A193B094C095D0906C0A601950176
:102D80002E193F09400B510B57FD08C011823382A9
:102D9000228224833583468357831DC081E081834B
:102DA0003382228288279927DC01821B930BA40B94
:102DB000B50B84839583A683B7830DC0220F331F81
:102DC000441F551F24833583468357838281938113
:102DD0000197938382832481358146815781DA016B
:102DE000C9010197A109B1098F5F9F4FAF4FBF4341
:102DF00028F30BC0918333822282EA0CFB1C0C1D4A
:102E00001D1DE482F5820683178383E0808324817D
:102E100035814681578157FF1AC0C901AA2797FDFE
:102E2000A095BA2F81709070A070B070569547959C
:102E300037952795822B932BA42BB52B84839583D1
:102E4000A683B78382819381019693838283DF0176
:102E500001C0D201CD01CDB7DEB7E2E10C94151D62
:102E6000A0E2B0E0E6E3F7E10C94051D69837A8304
:102E70008B839C832D833E834F835887E9E0EE2E1E
:102E8000F12CEC0EFD1ECE010196B7010E94EE1A48
:102E90008E010F5E1F4FCE010596B8010E94EE1AFB
:102EA0008A8991E089278A8BC701B801AE01475E04
:102EB0005F4F0E94E4150E94191AA096E6E00C9458
:102EC000211DA0E2B0E0E7E6F7E10C94051D69835F
:102ED0007A838B839C832D833E834F835887F9E0CD
:102EE000EF2EF12CEC0EFD1ECE010196B7010E94D3
:102EF000EE1A8E010F5E1F4FCE010596B8010E949B
:102F0000EE1AC701B801AE01475E5F4F0E94E4159B
:102F10000E94191AA096E6E00C94211DA0E2B0E0F0
:102F2000E4E9F7E10C94F91C69837A838B839C8331
:102F30002D833E834F835887CE010196BE01675F84
:102F40007F4F0E94EE1ACE010596BE016F5E7F4F45
:102F50000E94EE1A9985923088F089898230C8F0F3
:102F6000943019F4823051F404C0843029F4923042
:102F700081F48BE392E0C6C0923049F420E09A8558
:102F80008A89981321E02A87CE010996BBC0823036
:102F900049F420E09A858A89981321E02A8BCE0192
:102FA0004196B0C02D843E844F8458886D887E88B9
:102FB0008F88988CEE24FF248701AA24BB24650106
:102FC00040E050E060E070E0E0E0F0E0C1018170DE
:102FD0009070892BE9F0E60CF71C081D191D9A0169
:102FE000AB012A0D3B1D4C1D5D1D80E090E0A0E073
:102FF000B0E0E614F7040805190520F481E090E03C
:10300000A0E0B0E0BA01A901480F591F6A1F7B1F59
:10301000AA0CBB1CCC1CDD1C97FE08C081E090E014
:10302000A0E0B0E0A82AB92ACA2ADB2A3196E03209
:10303000F10549F0660C771C881C991C569447943E
:1030400037942794C3CFFA85EA892B893C898B85ED
:103050009C85280F391F2E5F3F4F17C0CA01817012
:103060009070892B61F016950795F794E79480E0AE
:1030700090E0A0E0B0E8E82AF92A0A2B1B2B76950D
:103080006795579547952F5F3F4F77FDE7CF0CC06A
:10309000440F551F661F771F17FD4160EE0CFF1C84
:1030A000001F111F21503040403090E0590790E040
:1030B000690790E4790760F32B8F3C8FDB01CA012D
:1030C0008F779070A070B07080349105A105B10524
:1030D00061F447FD0AC0E114F1040105110529F06E
:1030E000405C5F4F6F4F7F4F40781A8EFE1711F094
:1030F00081E08A8F4D8F5E8F6F8F78A383E0898FF9
:10310000CE0149960E94191AA096E2E10C94151D71
:10311000A8E1B0E0EEE8F8E10C94051D69837A833C
:103120008B839C832D833E834F83588789E0E82ED1
:10313000F12CEC0EFD1ECE010196B7010E94EE1A95
:103140008E010F5E1F4FCE010596B8010E94EE1A48
:103150008985823040F08989823028F0C701B80122
:103160000E94661B01C08FEF6896E6E00C94211D5B
:10317000A8E1B0E0EEEBF8E10C94051D69837A83D9
:103180008B839C832D833E834F83588789E0E82E71
:10319000F12CEC0EFD1ECE010196B7010E94EE1A35
:1031A0008E010F5E1F4FCE010596B8010E94EE1AE8
:1031B0008985823040F08989823028F0C701B801C2
:1031C0000E94661B01C08FEF6896E6E00C94211DFB
:1031D000A8E1B0E0EEEEF8E10C94051D69837A8376
:1031E0008B839C832D833E834F83588789E0E82E11
:1031F000F12CEC0EFD1ECE010196B7010E94EE1AD5
:103200008E010F5E1F4FCE010596B8010E94EE1A87
:103210008985823040F08989823028F0C701B80161
:103220000E94661B01C081E06896E6E00C94211DB7
:10323000A8E0B0E0EEE1F9E10C94021D9B01AC01C5
:1032400083E08983DA01C9018827B7FD839599272F
:10325000AA27BB27B82E211531054105510519F4C0
:1032600082E089833AC08823A9F0203080E03807C3
:1032700080E0480780E8580729F460E070E080E0CB
:103280009FEC30C0EE24FF248701E21AF30A040BFE
:10329000150B02C079018A018EE1C82ED12CDC8287
:1032A000CB82ED82FE820F831887C801B7010E948E
:1032B000CA1901971816190684F4082E04C0EE0CDA
:1032C000FF1C001F111F0A94D2F7ED82FE820F83AC
:1032D0001887C81AD90ADC82CB82BA82CE0101963D
:1032E0000E94191A2896E9E00C941E1DACE0B0E08B
:1032F000ECE7F9E10C94091D69837A838B839C8345
:10330000CE010196BE016B5F7F4F0E94EE1A8D8148
:10331000823061F1823050F1843021F48E81882333
:1033200051F12EC02F81388537FD20C06E812F319D
:1033300031051CF06623F9F023C08EE190E0821B7A
:10334000930B29853A854B855C8504C05695479536
:10335000379527958A95D2F76623B1F05095409519
:10336000309521953F4F4F4F5F4F0EC020E030E02A
:1033700040E050E009C02FEF3FEF4FEF5FE704C0A0
:1033800020E030E040E050E8B901CA012C96E2E0CC
:103390000C94251DEF92FF920F931F937B018C01DC
:1033A00080E0E81680E0F80681E0080780E0180772
:1033B00088F48FEFE816F1040105110531F028F0CB
:1033C00088E090E0A0E0B0E017C080E090E0A0E0EE
:1033D000B0E012C080E0E81680E0F80680E0080760
:1033E00081E0180728F088E190E0A0E0B0E004C098
:1033F00080E190E0A0E0B0E020E230E040E050E08A
:10340000281B390B4A0B5B0B04C016950795F794E4
:10341000E7948A95D2F7F701ED5BFD4F8081281B79
:10342000310941095109C9011F910F91FF90EF9096
:103430000895DF92EF92FF920F931F93FC01E480B7
:10344000F58006811781D1808081823048F480E048
:1034500090E0A0E1B0E0E82AF92A0A2B1B2BA5C0D6
:10346000843009F49FC0823021F4EE24FF248701C8
:1034700005C0E114F1040105110519F4E0E0F0E0E4
:1034800096C0628173819FEF623879070CF05BC050
:1034900022E83FEF261B370B2A3131052CF020E0C4
:1034A00030E040E050E02AC0B801A701022E04C07D
:1034B00076956795579547950A94D2F781E090E005
:1034C000A0E0B0E004C0880F991FAA1FBB1F2A9577
:1034D000D2F70197A109B1098E219F21A023B12321
:1034E0000097A105B10521F081E090E0A0E0B0E0F7
:1034F0009A01AB01282B392B4A2B5B2BDA01C9012E
:103500008F779070A070B07080349105A105B105DF
:1035100039F427FF09C0205C3F4F4F4F5F4F04C075
:10352000215C3F4F4F4F5F4FE0E0F0E02030A0E0E4
:103530003A07A0E04A07A0E45A0710F0E1E0F0E003
:1035400079018A0127C06038710564F5FB01E158F3
:10355000FF4FD801C7018F779070A070B070803492
:103560009105A105B10539F4E7FE0DC080E490E0B6
:10357000A0E0B0E004C08FE390E0A0E0B0E0E80E8F
:10358000F91E0A1F1B1F17FF05C016950795F79414
:10359000E794319687E016950795F794E7948A9516
:1035A000D1F705C0EE24FF248701EFEFF0E06E2F86
:1035B000679566276795902F9F77D794DD24D794DA
:1035C0008E2F8695492F462B582F5D29B701CA01AA
:1035D0001F910F91FF90EF90DF900895FC01DB01A8
:1035E000408151812281622F6F7770E0221F222754
:1035F000221F9381892F880F822B282F30E0991F5B
:103600009927991F11969C93119721153105A9F5BA
:10361000411551056105710511F482E037C082E85A
:103620009FEF13969C938E9312979A01AB0167E0DC
:10363000220F331F441F551F6A95D1F783E08C93E7
:103640000DC0220F331F441F551F12968D919C9160
:103650001397019713969C938E931297203080E0D6
:10366000380780E0480780E4580758F314962D93F4
:103670003D934D935C93179708952F3F310579F44F
:10368000411551056105710519F484E08C93089585
:1036900064FF03C081E08C9312C01C9210C02F57AE
:1036A000304013963C932E93129783E08C9387E0DF
:1036B000440F551F661F771F8A95D1F770641496C3
:1036C0004D935D936D937C93179708951F93DC0141
:1036D000FB019C91923008F447C08081823008F44D
:1036E00043C0943051F411961C91843099F5818136
:1036F000682F70E0611B71093FC0843021F0923067
:1037000031F48230B9F18181882389F12DC011967D
:103710001C9111978230F1F081811817D9F412961B
:103720002D913C911397828193818217930794F096
:1037300028173907BCF014968D919D910D90BC917E
:10374000A02D2481358146815781281739074A07E2
:103750005B0718F4112341F00AC082179307A407EE
:10376000B50740F4112319F061E070E005C06FEF78
:103770007FEF02C060E070E0CB011F910895CF930E
:10378000DF93BC018230910510F462E070E0A091FB
:103790009406B0919506ED01E0E0F0E040E050E0E5
:1037A00021C0888199818617970769F48A819B8156
:1037B000309719F09383828304C090939506809389
:1037C0009406FE0134C06817790738F44115510595
:1037D00019F08417950708F4AC01FE018A819B81DA
:1037E0009C01E9012097E9F641155105A9F1CA01AB
:1037F000861B970B049708F4BA01E0E0F0E02AC0BA
:103800008D919C91119784179507F9F464177507AA
:1038100081F412968D919C911397309719F09383B0
:10382000828304C09093950680939406FD0132969E
:103830004FC0CA01861B970BFD01E80FF91F61936A
:10384000719302978D939C9343C0FD018281938174
:103850009C01D9011097A1F6809192069091930650
:10386000892B41F4809145039091460390939306F0
:1038700080939206409147035091480341155105AA
:1038800041F44DB75EB78091430390914403481BC8
:10389000590B209192063091930624173507B0F406
:1038A000CA01821B930B8617970780F0AB014E5F0E
:1038B0005F4F8417950750F0420F531F50939306A4
:1038C00040939206F9016193719302C0E0E0F0E049
:1038D000CF01DF91CF910895CF93DF93009709F443
:1038E00050C0EC0122971B821A82A0919406B091DD
:1038F0009506109709F140E050E0AC17BD0708F1BC
:10390000BB83AA83FE0121913191E20FF31FAE1711
:10391000BF0779F48D919C911197280F391F2E5F65
:103920003F4F3983288312968D919C9113979B83E7
:103930008A834115510571F4D0939506C09394067E
:1039400020C012968D919C911397AD01009711F0B4
:10395000DC01D3CFFA01D383C28321913191E20FED
:10396000F31FCE17DF0769F488819981280F391F6B
:103970002E5F3F4FFA01318320838A819B8193839D
:103980008283DF91CF910895FB01DC0141505040CB
:1039900030F08D910190801919F40020B9F7881B3F
:1039A000990B0895AA1BBB1B51E107C0AA1FBB1F9F
:1039B000A617B70710F0A61BB70B881F991F5A95BB
:1039C000A9F780959095BC01CD01089597FB092E2C
:1039D00007260AD077FD04D0E5DF06D000201AF4D0
:1039E000709561957F4F0895F6F7909581959F4F5B
:1039F00008952F923F924F925F926F927F928F9293
:103A00009F92AF92BF92CF92DF92EF92FF920F936D
:103A10001F93CF93DF93CDB7DEB7CA1BDB0B0FB677
:103A2000F894DEBF0FBECDBF19942A883988488824
:103A30005F846E847D848C849B84AA84B984C884CA
:103A4000DF80EE80FD800C811B81AA81B981CE0FC1
:103A5000D11D0FB6F894DEBF0FBECDBFED010895A6
:043A6000F894FFCF08
:103A64000000CC410000A0425300FF03FF03B30455
:103A740052088A0C810CC40B06000100FAFFFFFFF8
:103A8400010053544F50004D4F564500676F74204A
:103A9400697400776F726B696E6700000000000044
:103AA40000000000010202030303030404040404ED
:103AB40004040405050505050505050505050505B5
:103AC4000505050606060606060606060606060695
:103AD4000606060606060606060606060606060682
:103AE4000606060707070707070707070707070765
:103AF4000707070707070707070707070707070752
:103B04000707070707070707070707070707070741
:103B14000707070707070707070707070707070731
:103B24000707070808080808080808080808080814
:103B34000808080808080808080808080808080801
:103B440008080808080808080808080808080808F1
:103B540008080808080808080808080808080808E1
:103B640008080808080808080808080808080808D1
:103B740008080808080808080808080808080808C1
:103B840008080808080808080808080808080808B1
:103B940008080808080808080808080808080808A1
:0A3BA4000808082000960600000043
:00000001FF
